{
  "contractName": "HealthVault",
  "abi": [
    {
      "inputs": [],
      "stateMutability": "nonpayable",
      "type": "constructor"
    },
    {
      "inputs": [],
      "name": "admin",
      "outputs": [
        {
          "internalType": "address",
          "name": "",
          "type": "address"
        }
      ],
      "stateMutability": "view",
      "type": "function",
      "constant": true
    },
    {
      "inputs": [
        {
          "internalType": "string",
          "name": "_cid",
          "type": "string"
        }
      ],
      "name": "certificateExists",
      "outputs": [
        {
          "internalType": "bool",
          "name": "",
          "type": "bool"
        }
      ],
      "stateMutability": "view",
      "type": "function",
      "constant": true
    },
    {
      "inputs": [
        {
          "internalType": "string",
          "name": "_cid",
          "type": "string"
        },
        {
          "internalType": "string",
          "name": "_certHash",
          "type": "string"
        },
        {
          "internalType": "string",
          "name": "_publicKey",
          "type": "string"
        }
      ],
      "name": "issueCertificate",
      "outputs": [],
      "stateMutability": "nonpayable",
      "type": "function"
    },
    {
      "inputs": [
        {
          "internalType": "string",
          "name": "_cid",
          "type": "string"
        }
      ],
      "name": "revokeCertificate",
      "outputs": [],
      "stateMutability": "nonpayable",
      "type": "function"
    },
    {
      "inputs": [
        {
          "internalType": "string",
          "name": "_cid",
          "type": "string"
        }
      ],
      "name": "verifyByCID",
      "outputs": [
        {
          "internalType": "bool",
          "name": "",
          "type": "bool"
        }
      ],
      "stateMutability": "view",
      "type": "function",
      "constant": true
    },
    {
      "inputs": [
        {
          "internalType": "string",
          "name": "_certHash",
          "type": "string"
        }
      ],
      "name": "verifyByCertHash",
      "outputs": [
        {
          "internalType": "bool",
          "name": "",
          "type": "bool"
        }
      ],
      "stateMutability": "view",
      "type": "function",
      "constant": true
    },
    {
      "inputs": [
        {
          "internalType": "address",
          "name": "newAdmin",
          "type": "address"
        }
      ],
      "name": "transferAdminRights",
      "outputs": [],
      "stateMutability": "nonpayable",
      "type": "function"
    },
    {
      "inputs": [
        {
          "internalType": "string",
          "name": "_cid",
          "type": "string"
        }
      ],
      "name": "getCertificateDetails",
      "outputs": [
        {
          "internalType": "string",
          "name": "certHash",
          "type": "string"
        },
        {
          "internalType": "address",
          "name": "issuer",
          "type": "address"
        },
        {
          "internalType": "uint256",
          "name": "issuedAt",
          "type": "uint256"
        },
        {
          "internalType": "bool",
          "name": "isValid",
          "type": "bool"
        },
        {
          "internalType": "string",
          "name": "publicKey",
          "type": "string"
        }
      ],
      "stateMutability": "view",
      "type": "function",
      "constant": true
    }
  ],
  "bytecode": "0x608060405234801561001057600080fd5b50336000806101000a81548173ffffffffffffffffffffffffffffffffffffffff021916908373ffffffffffffffffffffffffffffffffffffffff16021790555061128c806100606000396000f3fe608060405234801561001057600080fd5b50600436106100885760003560e01c8063ba8033541161005b578063ba80335414610125578063beec1caa14610155578063f851a44014610171578063fa433b361461018f57610088565b80630655f0371461008d578063142e1542146100bd5780632451a282146100d9578063b5106add14610109575b600080fd5b6100a760048036038101906100a29190610bbd565b6101c3565b6040516100b49190610f50565b60405180910390f35b6100d760048036038101906100d29190610bbd565b6101f1565b005b6100f360048036038101906100ee9190610bbd565b61034d565b6040516101009190610f50565b60405180910390f35b610123600480360381019061011e9190610b94565b610385565b005b61013f600480360381019061013a9190610bbd565b6104c6565b60405161014c9190610f50565b60405180910390f35b61016f600480360381019061016a9190610bfe565b6105a9565b005b610179610774565b6040516101869190610f35565b60405180910390f35b6101a960048036038101906101a49190610bbd565b610798565b6040516101ba959493929190610f6b565b60405180910390f35b6000806001836040516101d69190610f1e565b90815260200160405180910390206003015414159050919050565b803373ffffffffffffffffffffffffffffffffffffffff166001826040516102199190610f1e565b908152602001604051809103902060020160009054906101000a900473ffffffffffffffffffffffffffffffffffffffff1673ffffffffffffffffffffffffffffffffffffffff16146102a1576040517f08c379a00000000000000000000000000000000000000000000000000000000081526004016102989061106c565b60405180910390fd5b6001826040516102b19190610f1e565b908152602001604051809103902060040160009054906101000a900460ff1661030f576040517f08c379a00000000000000000000000000000000000000000000000000000000081526004016103069061100c565b60405180910390fd5b60006001836040516103219190610f1e565b908152602001604051809103902060040160006101000a81548160ff0219169083151502179055505050565b600060018260405161035f9190610f1e565b908152602001604051809103902060040160009054906101000a900460ff169050919050565b60008054906101000a900473ffffffffffffffffffffffffffffffffffffffff1673ffffffffffffffffffffffffffffffffffffffff163373ffffffffffffffffffffffffffffffffffffffff1614610413576040517f08c379a000000000000000000000000000000000000000000000000000000000815260040161040a9061104c565b60405180910390fd5b600073ffffffffffffffffffffffffffffffffffffffff168173ffffffffffffffffffffffffffffffffffffffff161415610483576040517f08c379a000000000000000000000000000000000000000000000000000000000815260040161047a9061102c565b60405180910390fd5b806000806101000a81548173ffffffffffffffffffffffffffffffffffffffff021916908373ffffffffffffffffffffffffffffffffffffffff16021790555050565b6000806002836040516104d99190610f1e565b908152602001604051809103902080546104f29061119e565b80601f016020809104026020016040519081016040528092919081815260200182805461051e9061119e565b801561056b5780601f106105405761010080835404028352916020019161056b565b820191906000526020600020905b81548152906001019060200180831161054e57829003601f168201915b505050505090506001816040516105829190610f1e565b908152602001604051809103902060040160009054906101000a900460ff16915050919050565b60006001846040516105bb9190610f1e565b9081526020016040518091039020600301541461060d576040517f08c379a000000000000000000000000000000000000000000000000000000000815260040161060490610fcc565b60405180910390fd5b6040518060c001604052808381526020018481526020013373ffffffffffffffffffffffffffffffffffffffff168152602001428152602001600115158152602001828152506001846040516106639190610f1e565b9081526020016040518091039020600082015181600001908051906020019061068d929190610a74565b5060208201518160010190805190602001906106aa929190610a74565b5060408201518160020160006101000a81548173ffffffffffffffffffffffffffffffffffffffff021916908373ffffffffffffffffffffffffffffffffffffffff1602179055506060820151816003015560808201518160040160006101000a81548160ff02191690831515021790555060a0820151816005019080519060200190610738929190610a74565b509050508260028360405161074d9190610f1e565b9081526020016040518091039020908051906020019061076e929190610a74565b50505050565b60008054906101000a900473ffffffffffffffffffffffffffffffffffffffff1681565b60606000806000606060006001876040516107b39190610f1e565b90815260200160405180910390206040518060c00160405290816000820180546107dc9061119e565b80601f01602080910402602001604051908101604052809291908181526020018280546108089061119e565b80156108555780601f1061082a57610100808354040283529160200191610855565b820191906000526020600020905b81548152906001019060200180831161083857829003601f168201915b5050505050815260200160018201805461086e9061119e565b80601f016020809104026020016040519081016040528092919081815260200182805461089a9061119e565b80156108e75780601f106108bc576101008083540402835291602001916108e7565b820191906000526020600020905b8154815290600101906020018083116108ca57829003601f168201915b505050505081526020016002820160009054906101000a900473ffffffffffffffffffffffffffffffffffffffff1673ffffffffffffffffffffffffffffffffffffffff1673ffffffffffffffffffffffffffffffffffffffff168152602001600382015481526020016004820160009054906101000a900460ff1615151515815260200160058201805461097b9061119e565b80601f01602080910402602001604051908101604052809291908181526020018280546109a79061119e565b80156109f45780601f106109c9576101008083540402835291602001916109f4565b820191906000526020600020905b8154815290600101906020018083116109d757829003601f168201915b5050505050815250509050600081606001511415610a47576040517f08c379a0000000000000000000000000000000000000000000000000000000008152600401610a3e90610fec565b60405180910390fd5b80600001518160400151826060015183608001518460a00151955095509550955095505091939590929450565b828054610a809061119e565b90600052602060002090601f016020900481019282610aa25760008555610ae9565b82601f10610abb57805160ff1916838001178555610ae9565b82800160010185558215610ae9579182015b82811115610ae8578251825591602001919060010190610acd565b5b509050610af69190610afa565b5090565b5b80821115610b13576000816000905550600101610afb565b5090565b6000610b2a610b25846110bd565b61108c565b905082815260208101848484011115610b4257600080fd5b610b4d84828561115c565b509392505050565b600081359050610b648161123f565b92915050565b600082601f830112610b7b57600080fd5b8135610b8b848260208601610b17565b91505092915050565b600060208284031215610ba657600080fd5b6000610bb484828501610b55565b91505092915050565b600060208284031215610bcf57600080fd5b600082013567ffffffffffffffff811115610be957600080fd5b610bf584828501610b6a565b91505092915050565b600080600060608486031215610c1357600080fd5b600084013567ffffffffffffffff811115610c2d57600080fd5b610c3986828701610b6a565b935050602084013567ffffffffffffffff811115610c5657600080fd5b610c6286828701610b6a565b925050604084013567ffffffffffffffff811115610c7f57600080fd5b610c8b86828701610b6a565b9150509250925092565b610c9e81611114565b82525050565b610cad81611126565b82525050565b6000610cbe826110ed565b610cc881856110f8565b9350610cd881856020860161116b565b610ce18161122e565b840191505092915050565b6000610cf7826110ed565b610d018185611109565b9350610d1181856020860161116b565b80840191505092915050565b6000610d2a6027836110f8565b91507f436572746966696361746520616c72656164792065786973747320666f72207460008301527f68697320434944000000000000000000000000000000000000000000000000006020830152604082019050919050565b6000610d90601a836110f8565b91507f436572746966696361746520646f6573206e6f742065786973740000000000006000830152602082019050919050565b6000610dd0602f836110f8565b91507f436572746966696361746520697320616c7265616479207265766f6b6564206f60008301527f7220646f65736e277420657869737400000000000000000000000000000000006020830152604082019050919050565b6000610e366019836110f8565b91507f496e76616c6964206e65772061646d696e2061646472657373000000000000006000830152602082019050919050565b6000610e766022836110f8565b91507f4f6e6c792061646d696e2063616e20706572666f726d2074686973206163746960008301527f6f6e0000000000000000000000000000000000000000000000000000000000006020830152604082019050919050565b6000610edc6016836110f8565b91507f4f6e6c79206973737565722063616e207265766f6b65000000000000000000006000830152602082019050919050565b610f1881611152565b82525050565b6000610f2a8284610cec565b915081905092915050565b6000602082019050610f4a6000830184610c95565b92915050565b6000602082019050610f656000830184610ca4565b92915050565b600060a0820190508181036000830152610f858188610cb3565b9050610f946020830187610c95565b610fa16040830186610f0f565b610fae6060830185610ca4565b8181036080830152610fc08184610cb3565b90509695505050505050565b60006020820190508181036000830152610fe581610d1d565b9050919050565b6000602082019050818103600083015261100581610d83565b9050919050565b6000602082019050818103600083015261102581610dc3565b9050919050565b6000602082019050818103600083015261104581610e29565b9050919050565b6000602082019050818103600083015261106581610e69565b9050919050565b6000602082019050818103600083015261108581610ecf565b9050919050565b6000604051905081810181811067ffffffffffffffff821117156110b3576110b26111ff565b5b8060405250919050565b600067ffffffffffffffff8211156110d8576110d76111ff565b5b601f19601f8301169050602081019050919050565b600081519050919050565b600082825260208201905092915050565b600081905092915050565b600061111f82611132565b9050919050565b60008115159050919050565b600073ffffffffffffffffffffffffffffffffffffffff82169050919050565b6000819050919050565b82818337600083830152505050565b60005b8381101561118957808201518184015260208101905061116e565b83811115611198576000848401525b50505050565b600060028204905060018216806111b657607f821691505b602082108114156111ca576111c96111d0565b5b50919050565b7f4e487b7100000000000000000000000000000000000000000000000000000000600052602260045260246000fd5b7f4e487b7100000000000000000000000000000000000000000000000000000000600052604160045260246000fd5b6000601f19601f8301169050919050565b61124881611114565b811461125357600080fd5b5056fea26469706673582212202c54868af666e8b7e4cd07f3c8c00822b579ecae810ce052770d75f22e66488864736f6c63430008000033",
  "immutableReferences": {},
  "source": "// SPDX-License-Identifier: MIT\npragma solidity ^0.8.0;\n\ncontract HealthVault {\n    address public admin;\n\n    struct Certificate {\n        string certHash;   // Hash of the certificate\n        string cid;        // CID of the file stored on IPFS\n        address issuer;    // Address of the issuer\n        uint256 issuedAt;  // Timestamp of issuance\n        bool isValid;      // Validity status of the certificate\n        string publicKey;  // Public key associated with the certificate\n    }\n\n    mapping(string => Certificate) private certificatesByCID;\n    mapping(string => string) private cidByCertHash;  // Map certHash -> CID for verification\n\n    constructor() {\n        admin = msg.sender;\n    }\n\n    modifier onlyAdmin() {\n        require(msg.sender == admin, \"Only admin can perform this action\");\n        _;\n    }\n\n    modifier onlyIssuer(string memory _cid) {\n        require(certificatesByCID[_cid].issuer == msg.sender, \"Only issuer can revoke\");\n        _;\n    }\n\n    // Function to check if a certificate exists by CID\n    function certificateExists(string memory _cid) public view returns (bool) {\n        return certificatesByCID[_cid].issuedAt != 0;\n    }\n\n\n    function issueCertificate(string memory _cid, string memory _certHash, string memory _publicKey) public {\n        require(certificatesByCID[_cid].issuedAt == 0, \"Certificate already exists for this CID\");\n\n        certificatesByCID[_cid] = Certificate({\n            certHash: _certHash,\n            cid: _cid,\n            issuer: msg.sender,\n            issuedAt: block.timestamp,\n            isValid: true,\n            publicKey: _publicKey\n        });\n\n        cidByCertHash[_certHash] = _cid;\n    }\n\n    // Function to revoke a certificate by the issuer\n    function revokeCertificate(string memory _cid) public onlyIssuer(_cid) {\n        require(certificatesByCID[_cid].isValid, \"Certificate is already revoked or doesn't exist\");\n        certificatesByCID[_cid].isValid = false;\n    }\n\n    // Function to verify if a certificate is valid by CID\n    function verifyByCID(string memory _cid) public view returns (bool) {\n        return certificatesByCID[_cid].isValid;\n    }\n\n    // Function to verify if a certificate is valid by certificate hash\n    function verifyByCertHash(string memory _certHash) public view returns (bool) {\n        string memory cid = cidByCertHash[_certHash];\n        return certificatesByCID[cid].isValid;\n    }\n\n    // Function to transfer admin rights to a new address\n    function transferAdminRights(address newAdmin) public onlyAdmin {\n        require(newAdmin != address(0), \"Invalid new admin address\");\n        admin = newAdmin;\n    }\n\n    // Function to get certificate details by CID\n    function getCertificateDetails(string memory _cid) public view returns (\n        string memory certHash, \n        address issuer, \n        uint256 issuedAt, \n        bool isValid, \n        string memory publicKey\n    ) {\n        Certificate memory cert = certificatesByCID[_cid];\n        require(cert.issuedAt != 0, \"Certificate does not exist\");\n        return (cert.certHash, cert.issuer, cert.issuedAt, cert.isValid, cert.publicKey);\n    }\n}\n",
  "sourcePath": "/home/ashwinpraveengo/HealthVault/Document-Verification/contracts/HealthVault.sol",
  "compiler": {
    "name": "solc",
    "version": "0.8.0+commit.c7dfd78e.Emscripten.clang"
  },
  "schemaVersion": "3.4.16",
  "updatedAt": "2024-09-08T04:14:52.767Z",
  "networkType": "ethereum",
  "devdoc": {
    "kind": "dev",
    "methods": {},
    "version": 1
  },
  "userdoc": {
    "kind": "user",
    "methods": {},
    "version": 1
  }
}